:020000040800F2
:100000000000022089230008051C0008071C0008C6
:10001000091C00080B1C00080D1C00080000000053
:100020000000000000000000000000000F1C00089D
:10003000111C000800000000131C0008151C00081B
:10004000D9230008D9230008D9230008D9230008A0
:10005000D9230008D9230008D9230008D923000890
:10006000D9230008D9230008D9230008D923000880
:10007000651C0008D9230008751C0008851C0008B1
:10008000951C0008A51C0008D9230008B51C000811
:10009000C91C0008D9230008D9230008D923000867
:1000A000D9230008D91C0008D9230008D923000847
:1000B000D9230008D9230008D9230008E91C000827
:1000C000D9230008F91C0008091D0008D9230008DD
:1000D000D9230008191D0008291D0008391D000832
:1000E000D9230008D9230008D9230008D923000800
:1000F000D9230008D9230008D9230008D9230008F0
:10010000D9230008D9230008D9230008D9230008DF
:10011000D9230008D9230008D9230008D9230008CF
:10012000491D0008591D0008691D0008791D0008B7
:10013000891D0008D9230008D9230008D923000805
:10014000D9230008D9230008D9230008D92300089F
:10015000991D0008D9230008A91D0008D92300080B
:10016000D9230008D9230008D9230008D92300087F
:10017000D9230008D9230008D92300080000000073
:08018000D9230008D92300086F
:1001880010B5054C237833B9044B13B10448AFF3C9
:1001980000800123237010BD18000020000000001B
:1001A800280F010808B5034B1BB103490348AFF3F7
:1001B800008008BD000000001C000020280F010876
:1001C800034613F8012B002AFBD1181A013870478F
:1001D80081F0004102E000BF83F0004330B54FEAF0
:1001E80041044FEA430594EA050F08BF90EA020F5D
:1001F8001FBF54EA000C55EA020C7FEA645C7FEAF0
:10020800655C00F0E2804FEA5454D4EB5555B8BF12
:100218006D420CDD2C4480EA020281EA030382EA83
:10022800000083EA010180EA020281EA0303362D15
:1002380088BF30BD11F0004F4FEA01314FF4801CE8
:100248004CEA113102D0404261EB410113F0004FFA
:100258004FEA03334CEA133302D0524263EB4303B1
:1002680094EA050F00F0A780A4F10104D5F1200E4F
:100278000DDB02FA0EFC22FA05F2801841F10001AA
:1002880003FA0EF2801843FA05F359410EE0A5F17E
:1002980020050EF1200E012A03FA0EFC28BF4CF0AF
:1002A800020C43FA05F3C01851EBE37101F0004565
:1002B80007D54FF0000EDCF1000C7EEB00006EEB72
:1002C8000101B1F5801F1BD3B1F5001F0CD34908FC
:1002D8005FEA30004FEA3C0C04F101044FEA445253
:1002E80012F5800F80F09A80BCF1004F08BF5FEADA
:1002F800500C50F1000041EB045141EA050130BDBA
:100308005FEA4C0C404141EB0101013C28BFB1F5CB
:10031800801FE9D291F0000F04BF01460020B1FA16
:1003280081F308BF2033A3F10B03B3F120020CDAE9
:100338000C3208DD02F1140CC2F10C0201FA0CF0C7
:1003480021FA02F10CE002F11402D8BFC2F1200C2C
:1003580001FA02F120FA0CFCDCBF41EA0C019040E2
:10036800E41AA2BF01EB0451294330BD6FEA04042B
:100378001F3C1CDA0C340EDC04F11404C4F1200216
:1003880020FA04F001FA02F340EA030021FA04F328
:1003980045EA030130BDC4F10C04C4F1200220FA7F
:1003A80002F001FA04F340EA0300294630BD21FABD
:1003B80004F0294630BD94F0000F83F4801306BF83
:1003C80081F480110134013D4EE77FEA645C18BF77
:1003D8007FEA655C29D094EA050F08BF90EA020F0E
:1003E80005D054EA000C04BF1946104630BD91EA06
:1003F800030F1EBF0021002030BD5FEA545C05D109
:100408004000494128BF41F0004130BD14F5800447
:100418003CBF01F5801130BD01F0004545F0FE41BB
:1004280041F470014FF0000030BD7FEA645C1ABFF0
:10043800194610467FEA655C1CBF0B46024650EA27
:10044800013406BF52EA033591EA030F41F4002153
:1004580030BD00BF90F0000F04BF0021704730B5D9
:100468004FF4806404F132044FF000054FF00001AE
:1004780050E700BF90F0000F04BF0021704730B56F
:100488004FF4806404F1320410F0004548BF404244
:100498004FF000013EE700BF42004FEAE2014FEA99
:1004A80031014FEA02701FBF12F07F4393F07F4F74
:1004B80081F06051704732F07F4208BF704793F077
:1004C8007F4F04BF41F40021704730B54FF460748A
:1004D80001F0004521F000411CE700BF50EA01028D
:1004E80008BF704730B54FF000050AE050EA010236
:1004F80008BF704730B511F0004502D5404261EBA6
:1005080041014FF4806404F132045FEA915C3FF4E6
:10051800D8AE4FF003025FEADC0C18BF03325FEA83
:10052800DC0C18BF033202EBDC02C2F1200300FA34
:1005380003FC20FA02F001FA03FE40EA0E0021FA59
:1005480002F11444BDE600BF70B54FF0FF0C4CF447
:10055800E06C1CEA11541DBF1CEA135594EA0C0FF9
:1005680095EA0C0F00F0DEF82C4481EA030621EA34
:100578004C5123EA4C5350EA013518BF52EA03356F
:1005880041F4801143F4801338D0A0FB02CE4FF021
:100598000005E1FB02E506F00042E0FB03E54FF051
:1005A8000006E1FB03569CF0000F18BF4EF0010E49
:1005B800A4F1FF04B6F5007F64F5407404D25FEA45
:1005C8004E0E6D4146EB060642EAC62141EA5551F8
:1005D8004FEAC52040EA5E504FEACE2EB4F1FD0C3A
:1005E80088BFBCF5E06F1ED8BEF1004F08BF5FEAB8
:1005F800500E50F1000041EB045170BD06F000466A
:1006080046EA010140EA020081EA0301B4EB5C0416
:10061800C2BFD4EB0C0541EA045170BD41F480110E
:100628004FF0000E013C00F3AB8014F1360FDEBF33
:10063800002001F0004170BDC4F10004203C35DA0F
:100648000C341BDC04F11404C4F1200500FA05F392
:1006580020FA04F001FA05F240EA020001F0004233
:1006680021F0004110EBD37021FA04F642EB0601A9
:100678005EEA430E08BF20EAD37070BDC4F10C04D3
:10068800C4F1200500FA04F320FA05F001FA04F297
:1006980040EA020001F0004110EBD37041F1000183
:1006A8005EEA430E08BF20EAD37070BDC4F120058E
:1006B80000FA05F24EEA020E20FA04F301FA05F2F6
:1006C80043EA020321FA04F001F0004121FA04F29E
:1006D80020EA020000EBD3705EEA430E08BF20EA6E
:1006E800D37070BD94F0000F0FD101F000464000A8
:1006F80041EB010111F4801F08BF013CF7D041EA2A
:10070800060195F0000F18BF704703F0004652002D
:1007180043EB030313F4801F08BF013DF7D043EAFE
:100728000603704794EA0C0F0CEA135518BF95EAB4
:100738000C0F0CD050EA410618BF52EA4306D1D13B
:1007480081EA030101F000414FF0000070BD50EA5A
:10075800410606BF1046194652EA430619D094EAE4
:100768000C0F02D150EA013613D195EA0C0F05D1CE
:1007780052EA03361CBF104619460AD181EA030122
:1007880001F0004141F0FE4141F470014FF00000DA
:1007980070BD41F0FE4141F4780170BD70B54FF075
:1007A800FF0C4CF4E06C1CEA11541DBF1CEA1355F5
:1007B80094EA0C0F95EA0C0F00F0A7F8A4EB0504D7
:1007C80081EA030E52EA03354FEA013100F08880CE
:1007D8004FEA03334FF0805545EA131343EA126397
:1007E8004FEA022245EA111545EA10654FEA00264C
:1007F8000EF000419D4208BF964244F1FD0404F505
:10080800407402D25B084FEA3202B61A65EB030560
:100818005B084FEA32024FF480104FF4002CB6EB1D
:10082800020E75EB030E22BFB61A754640EA0C009D
:100838005B084FEA3202B6EB020E75EB030E22BFDD
:10084800B61A754640EA5C005B084FEA3202B6EB1E
:10085800020E75EB030E22BFB61A754640EA9C00DD
:100868005B084FEA3202B6EB020E75EB030E22BFAD
:10087800B61A754640EADC0055EA060E18D04FEA6B
:10088800051545EA16754FEA06164FEAC30343EA0B
:1008980052734FEAC2025FEA1C1CC0D111F4801FD8
:1008A8000BD141EA00014FF000004FF0004CB6E7D1
:1008B80011F4801F04BF01430020B4F1FD0C88BF70
:1008C800BCF5E06F3FF6AFAEB5EB030C04BFB6EB7B
:1008D800020C5FEA500C50F1000041EB045170BD6E
:1008E8000EF0004E4EEA113114EB5C04C2BFD4EB9B
:1008F8000C0541EA045170BD41F480114FF0000E1F
:10090800013C90E645EA060E8DE60CEA135594EA9A
:100918000C0F08BF95EA0C0F3FF43BAF94EA0C0F9D
:100928000AD150EA01347FF434AF95EA0C0F7FF412
:1009380025AF104619462CE795EA0C0F06D152EA66
:1009480003353FF4FDAE1046194622E750EA41064A
:1009580018BF52EA43067FF4C5AE50EA41047FF45B
:100968000DAF52EA43057FF4EBAE12E74FF0FF3CC0
:1009780006E000BF4FF0010C02E000BF4FF0010C91
:100988004DF804CD4FEA410C7FEA6C5C4FEA430C0A
:1009980018BF7FEA6C5C1BD001B050EA410C0CBF59
:1009A80052EA430C91EA030F02BF90EA020F0020BB
:1009B800704710F1000F91EA030F58BF994208BF22
:1009C80090422CBFD8176FEAE37040F001007047DF
:1009D8004FEA410C7FEA6C5C02D150EA013C07D136
:1009E8004FEA430C7FEA6C5CD6D152EA033CD3D081
:1009F8005DF8040B704700BF8446104662468C467B
:100A08001946634600E000BF01B5FFF7B7FF0028AD
:100A180048BF10F1000F01BD4DF808EDFFF7F4FFD6
:100A28000CBF012000205DF808FB00BF4DF808ED61
:100A3800FFF7EAFF34BF012000205DF808FB00BF84
:100A48004DF808EDFFF7E0FF94BF012000205DF8A6
:100A580008FB00BF4DF808EDFFF7CEFF94BF01205B
:100A680000205DF808FB00BF4DF808EDFFF7C4FF54
:100A780034BF012000205DF808FB00BF4FEA4102A7
:100A880012F5001215D211D56FF47873B3EB6252D8
:100A980012D94FEAC12343F0004343EA505311F0FF
:100AA800004F23FA02F018BF404270474FF0000091
:100AB800704750EA013005D111F0004008BF6FF0CF
:100AC800004070474FF00000704700BF4A0011D245
:100AD80012F5001211D20DD56FF47873B3EB625290
:100AE8000ED44FEAC12343F0004343EA505323FA9C
:100AF80002F070474FF00000704750EA013002D111
:100B08004FF0FF3070474FF0000070474FEA410246
:100B1800B2F1E04324BFB3F5001CDCF1FE5C0DD953
:100B280001F0004C4FEAC0024CEA5070B2F1004F9D
:100B380040EB830008BF20F00100704711F0804FA0
:100B480021D113F13872BCBF01F00040704741F465
:100B580080114FEA5252C2F11802C2F1200C10FA69
:100B68000CF320FA02F018BF40F001004FEAC1234D
:100B78004FEAD32303FA0CFC40EA0C0023FA02F3F1
:100B88004FEA4303CCE77FEA625307D150EA0133C7
:100B98001EBF4FF0FE4040F44000704701F0004097
:100BA80040F0FE4040F40000704700BF7BB972B9C6
:100BB8000029BEBF00204FF0004106E008BF002812
:100BC8001CBF6FF000414FF0FF3000F0BFB9ADF12E
:100BD800080C6DE904CE002909DB002B1ADB00F0B4
:100BE8004DF8DDF804E0DDE9022304B07047404227
:100BF80061EB4101002B1BDB00F040F8DDF804E05D
:100C0800DDE9022304B0404261EB4101524263EB4B
:100C180043037047524263EB430300F02FF8DDF8BB
:100C280004E0DDE9022304B0404261EB4101704772
:100C3800524263EB430300F021F8DDF804E0DDE9FC
:100C4800022304B0524263EB4303704753B94AB9D5
:100C5800002908BF00281CBF4FF0FF314FF0FF30BC
:100C680000F074B9ADF1080C6DE904CE00F006F897
:100C7800DDF804E0DDE9022304B070472DE9F04710
:100C8800089D04468E46002B4DD18A42944669D968
:100C9800B2FA82F252B101FA02F3C2F1200120FA4B
:100CA80001F10CFA02FC41EA030E94404FEA1C4899
:100CB800210CBEFBF8F61FFA8CF708FB16E341EA95
:100CC800034306FB07F199420AD91CEB030306F11B
:100CD800FF3080F01F81994240F21C81023E63443C
:100CE8005B1AA4B2B3FBF8F008FB103344EA0344E0
:100CF80000FB07F7A7420AD91CEB040400F1FF33F5
:100D080080F00A81A74240F207816444023840EA31
:100D18000640E41B00261DB1D4400023C5E900436A
:100D28003146BDE8F0878B4209D9002D00F0EF80ED
:100D38000026C5E9000130463146BDE8F087B3FA20
:100D480083F6002E4AD18B4202D3824200F2F98008
:100D5800841A61EB030301209E46002DE0D0C5E90B
:100D6800004EDDE702B9FFDEB2FA82F2002A40F057
:100D78009280A1EB0C014FEA1C471FFA8CFE01265A
:100D8800200CB1FBF7F307FB131140EA01410EFBFE
:100D980003F0884208D91CEB010103F1FF3802D2A5
:100DA800884200F2CB804346091AA4B2B1FBF7F09F
:100DB80007FB101144EA01440EFB00FEA64508D9C2
:100DC8001CEB040400F1FF3102D2A64500F2BB80FF
:100DD8000846A4EB0E0440EA03409CE7C6F120074E
:100DE800B34022FA07FC4CEA030C20FA07F401FA94
:100DF80006F31C43F9404FEA1C4900FA06F3B1FB1D
:100E0800F9F8200C1FFA8CFE09FB181140EA014181
:100E180008FB0EF0884202FA06F20BD91CEB01011E
:100E280008F1FF3A80F08880884240F28580A8F176
:100E380002086144091AA4B2B1FBF9F009FB1011C8
:100E480044EA014100FB0EFE8E4508D91CEB010166
:100E580000F1FF346CD28E456AD90238614440EA09
:100E68000840A0FB0294A1EB0E01A142C846A64689
:100E780056D353D05DB1B3EB080261EB0E0101FA12
:100E880007F722FA06F3F1401F43C5E9007100266F
:100E98003146BDE8F087C2F12003D8400CFA02FCC5
:100EA80021FA03F3914001434FEA1C471FFA8CFED5
:100EB800B3FBF7F007FB10360B0C43EA064300FBC5
:100EC8000EF69E4204FA02F408D91CEB030300F163
:100ED800FF382FD29E422DD9023863449B1B89B21A
:100EE800B3FBF7F607FB163341EA034106FB0EF3A3
:100EF8008B4208D91CEB010106F1FF3816D28B4250
:100F080014D9023E6144C91A46EA004638E72E461B
:100F1800284605E70646E3E61846F8E64B45A9D213
:100F2800B9EB020864EB0C0E0138A3E74646EAE782
:100F3800204694E74046D1E7D0467BE7023B614430
:100F480032E7304609E76444023842E7704700BF99
:100F580000B585B0002300930193029303932848BA
:100F6800284A02604FF480324260836001220261A5
:100F7800027680F82030C36223498162C36004216D
:100F8800C16180F83020436101F024FB40BB00239D
:100F9800009301230193072302936946184801F03F
:100FA8005FFC00BB012300930223019369461448A8
:100FB80001F056FCD0B9022300930323019369463C
:100FC8000F4801F04DFCA0B91123009304230193AD
:100FD80069460B4801F044FC70B905B05DF804FBA4
:100FE80000F02CFCD3E700F029FCDBE700F026FC3E
:100FF800E1E700F023FCE7E700F020FCEDE700BFA5
:1010080034000020002001400100000F00B585B029
:10101800002300930193029303932248224A02601B
:101028004FF480324260836001220261027680F8C8
:101038002030C3621D498162C3600321C16180F809
:101048003020436101F0C6FAF8B904230093012364
:101058000193072302936946124801F001FCB8B9CD
:10106800052300930223019369460E4801F0F8FB1B
:1010780088B906230093032301936946094801F0C0
:10108800EFFB58B905B05DF804FB00F0D7FBDCE7CF
:1010980000F0D4FBE4E700F0D1FBEAE700F0CEFB78
:1010A800F0E700BF7C000020002101400100000F94
:1010B80000B585B0002300930193029303931C4865
:1010C8001C4A02604FF48032426083600122026150
:1010D800027680F82030C36217498162C36002211A
:1010E800C16180F83020436101F074FAB0B90A2375
:1010F8000093012301930723029369460C4801F0EA
:10110800AFFB70B90B23009302230193694608488B
:1011180001F0A6FB40B905B05DF804FB00F08EFBBA
:10112800E5E700F08BFBEDE700F088FBF3E700BF95
:10113800C4000020002201400100000F30B58DB02E
:10114800044600230793089309930A930B930368B3
:10115800604A934207D0604A934240D05F4A934224
:101168007BD00DB030BD002501955D4B5A6C42F423
:1011780080725A645A6C02F480720192019A029544
:101188001A6B42F001021A631B6B03F0010302930E
:10119800029B072307930323089307A9514802F0EA
:1011A800F1FA5148514B036045608560C5604FF4C2
:1011B800806303614FF4006343614FF4005383611C
:1011C8004FF48073C3610562456202F0F1F818B903
:1011D800454BA3639C63C4E700F030FBF8E70025A8
:1011E80003953F4B5A6C42F400725A645A6C02F4ED
:1011F80000720392039A04951A6B42F001021A6373
:101208001B6B03F001030493049B702307930323D0
:10121800089307A9334802F0B5FA3548354B0360FF
:101228004FF0007343608560C5604FF480630361CD
:101238004FF4006343614FF4005383614FF48073AC
:10124800C3610562456202F0B3F818B9284BA3637D
:101258009C6386E700F0F2FAF8E700250595204B35
:101268005A6C42F480625A645A6C02F480620592A5
:10127800059A06951A6B42F004021A631B6B03F079
:1012880004030693069B03230793089307A91A48A8
:1012980002F078FA19481A4B03604FF080634360F4
:1012A8008560C5604FF4806303614FF40063436158
:1012B8004FF4005383614FF48073C3610562456244
:1012C80002F076F818B90D4BA3639C6349E700F068
:1012D800B5FAF8E700200140002101400022014052
:1012E80000380240000002400C01002070640240F7
:1012F8006C0100204064024000080240CC0100203C
:101308002864024008B50D480D4B0360062343606E
:1013180000238360C3604FF4202202614FF48012DF
:101328004261037643768376C3760377437701F089
:1013380063FB00B908BD00F081FAFBE72C0200202E
:101348000064004010B588B000230393049305930C
:101358000693079302681D4B9A4201D008B010BD4E
:101368000024019403F5EA331A6C42F000721A64FF
:101378001A6C02F000720192019A02941A6B42F000
:1013880001021A631B6B03F001030293029B4FF4E3
:10139800C05303930223049303230693092307935B
:1013A80003A90B4802F0EEF922460421132001F0AC
:1013B80025FF132001F05AFF22460421142001F0D2
:1013C8001DFF142001F052FFC8E700BF0064004071
:1013D8000000024010B582B0002400943A4B1A6B0A
:1013E80042F480021A631A6B02F480020092009A97
:1013F80001941A6B42F400121A631B6B03F4001376
:101408000193019B224606210C2001F0F7FE0C20D7
:1014180001F02CFF224603210E2001F0EFFE0E20E2
:1014280001F024FF224603210F2001F0E7FE0F20E0
:1014380001F01CFF22460621102001F0DFFE1020DB
:1014480001F014FF22460621112001F0D7FE1120D9
:1014580001F00CFF22460321382001F0CFFE38208E
:1014680001F004FF22460221392001F0C7FE39208D
:1014780001F0FCFE224602213A2001F0BFFE3A208C
:1014880001F0F4FE224603213B2001F0B7FE3B2089
:1014980001F0ECFE224602213C2001F0AFFE3C2088
:1014A80001F0E4FE22460621442001F0A7FE442074
:1014B80001F0DCFE22460621462001F09FFE462070
:1014C80001F0D4FE02B010BD003802402DE9F04F03
:1014D8008FB0002409940A940B940C940D940194F1
:1014E800744B1A6B42F010021A631A6B02F0100266
:1014F8000192019A02941A6B42F004021A631A6B61
:1015080002F004020292029A03941A6B42F020023B
:101518001A631A6B02F020020392039A04941A6B5E
:1015280042F080021A631A6B02F080020492049A55
:1015380005941A6B42F001021A631A6B02F0010259
:101548000592059A06941A6B42F002021A631A6B06
:1015580002F002020692069A07941A6B42F00802F9
:101568001A631A6B02F008020792079A08941A6B1A
:1015780042F040021A631B6B03F040030893089B78
:10158800DFF84481224641F6BF71404602F0ECF98B
:10159800DFF8389122464FF44041484602F0E4F91A
:1015A800DFF82CB122464FF2EC51584602F0DCF934
:1015B80022468021404802F0D7F922464CF20331F6
:1015C8003E4802F0D1F93E4F22460121384602F04A
:1015D800CBF93C4E22464FF48041304602F0C4F924
:1015E80041F6BF73099301250A950B940C9409A938
:1015F800404602F0C7F84FF4404ACDF824A00A95B7
:101608000B940C9409A9484602F0BCF84FF2EC532D
:1016180009930A950B940C9409A9584602F0B2F85C
:10162800802309930A950B940C9409A9224802F087
:10163800A9F8A02309930A940B9409A9484602F033
:10164800A1F84CF2033309930A950B940C9409A959
:101658001A4802F097F8CDF824A00A940B9409A927
:10166800404602F08FF84FF4585309930A940B94AC
:1016780009A9384602F086F84FF4FE7309930A94D4
:101688000B9409A9304602F07DF809950A950B9448
:101698000C9409A9384602F075F84FF48043099371
:1016A8000A950B940C9409A9304602F06BF80FB018
:1016B800BDE8F08F003802400000024000040240FC
:1016C800000C0240001802400010024000080240CE
:1016D8000014024008B50B480B4B03600B4B4360EA
:1016E80000238360C3604FF48042026143618361D9
:1016F800C361036202F04AFD00B908BD00F09EF81C
:10170800FBE700BF5402002000540040A0860100FF
:1017180008B50B480B4B03600B4B436000238360F9
:10172800C3604FF48042026143618361C361036215
:1017380002F02CFD00B908BD00F080F8FBE700BFFF
:10174800A802002000580040A086010030B58BB0E8
:101758000023059306930793089309930368324A75
:10176800934204D0314A93422CD00BB030BD0025AF
:1017780001952F4C236B43F002032363236B03F083
:1017880002030193019BC0230593122306930323AD
:1017980008930423099305A9264801F0F3FF02954D
:1017A800236C43F400132364236C03F400130293A3
:1017B800029B2A4605211F2001F020FD1F2001F071
:1017C80055FDD2E700250395194C236B43F0200300
:1017D8002363236B03F020030393039B03230593E5
:1017E8001222069208930423099305A9124801F0CE
:1017F800C9FF0495236C43F480032364236C03F42A
:1018080080030493049B2A460521212001F0F6FC5D
:10181800212001F02BFD2A460521222001F0EEFCB3
:10182800222001F023FDA0E70054004000580040AA
:1018380000380240000402400014024072B6FEE77D
:1018480000B595B03022002108A80FF061FB0023F5
:10185800039304930593069307930193224A116C0B
:1018680041F080511164126C02F080520192019A89
:1018780002931E4B1A6842F480421A601B6803F4F4
:1018880080430293029B092308934FF48033099302
:1018980001230D9302230E934FF480020F92192215
:1018A80010924FF4A872119212930723139308A869
:1018B80003F078FE98B90F230393022304930023BF
:1018C80005934FF4A05306934FF4805307930521D3
:1018D80003A804F0B5F820B915B05DF804FBFFF7CC
:1018E800ADFFFFF7ABFF00BF0038024000700040BB
:1018F80008B500F095FDFFF7A3FFFFF7E7FDFFF739
:1019080069FDFFF725FBFFF781FBFFF7D1FBFFF729
:10191800F9FCFFF7DFFE00F01BF800F09BFA00F07F
:10192800D1FA00F087FB00F09FFB00F0B7FBFFF750
:10193800EFFE00F031F800F045FA044804F03EFEEE
:101948000FF0E2F80DF0D6F9FEE700BF30050020F1
:1019580008B50F480F4B03604FF4827343600023B0
:101968008360C36002220261012242614FF4007267
:1019780082613022C2610362436283620A23C362C6
:1019880004F018FA00B908BDFFF758FFFBE700BFDD
:101998007C0400200030014008B50F480F4B03605D
:1019A8004FF48273436000238360C36002220261A4
:1019B800012242614FF4007282612822C2610362EF
:1019C800436283620A23C36204F0F4F900B908BDD4
:1019D800FFF734FFFBE700BFD404002000380040C5
:1019E8002DE9F0438BB00446002305930693079333
:1019F800089309930368664A934205D0654A93425F
:101A080059D00BB0BDE8F08300250095624B5A6CA5
:101A180042F480525A645A6C02F480520092009A3E
:101A280001951A6B42F002021A631B6B03F0020362
:101A38000193019B382305930223069303230893FC
:101A48000523099305A9554801F09CFE5448554BB8
:101A580003604FF0C063436040238360C5604FF468
:101A68008063036145618561C5610562456201F076
:101A78009FFCD0B94A4BA3649C634B484B4B036013
:101A88004FF0C063436000238360C3604FF48062FB
:101A9800026143618361C3610362436201F088FCB0
:101AA80030B9414BE3649C63ABE7FFF7C7FEE1E75E
:101AB800FFF7C4FEF5E700250295374B1A6C42F490
:101AC80080421A641A6C02F480420292029A0395C8
:101AD8001A6B42F004021A631A6B02F004020392B2
:101AE800039A04951A6B42F002021A631B6B03F007
:101AF80002030493049B0C2305934FF00209CDF8CD
:101B080018904FF00308CDF820800527099705A9FC
:101B1800274801F037FE4FF480660596CDF81890F7
:101B28000795CDF82080099705A91C4801F02AFEE1
:101B38002048214B0360456040238360C5600661EF
:101B480045618561C5610562456201F031FCC0B936
:101B5800184BA3649C631948194B03600023436026
:101B68008360C3604FF48062026143618361C36133
:101B78000362436201F01CFC30B9104BE3649C63C0
:101B88003FE7FFF75BFEE3E7FFF758FEF5E700BF27
:101B98000030014000380040003802400004024094
:101BA8005C03002058640240FC02002010640240DC
:101BB800000802401C04002070600240BC030020A2
:101BC8005860024082B0002100910B4B5A6C42F4DD
:101BD80080425A645A6C02F480420092009A019141
:101BE8001A6C42F080521A641B6C03F08053019304
:101BF800019B02B0704700BF00380240FEE7FEE7D5
:101C0800FEE7FEE7FEE770477047704708B50F4AE2
:101C1800138801339BB21380632B02D91346002229
:101C28001A800B4A1368013313600A4B1B78DBB226
:101C3800012B02D000F00EFC08BD064B00221A70E2
:101C4800054A136801331360F4E700BF2C05002030
:101C580044A3002048A3002040A3002008B5024860
:101C680001F09EFC08BD00BF8807002008B50248A7
:101C780001F096FC08BD00BFBC03002008B502486F
:101C880001F08EFC08BD00BF1C04002008B5024806
:101C980001F086FC08BD00BFC806002008B5024850
:101CA80001F07EFC08BD00BF2807002008B5002011
:101CB8000BF00AFD014801F069F908BD2C0200206B
:101CC80008B5024801F062F908BD00BF2C020020E7
:101CD80008B5024804F0BAFC08BD00BF3005002072
:101CE80008B5024803F028FB08BD00BF54020020D5
:101CF80008B5024803F020FB08BD00BFA802002079
:101D080008B5024803F0E8FB08BD00BFA8020020A0
:101D180008B5024805F014FB08BD00BFE80700201D
:101D280008B5024805F00CFB08BD00BF2C080020D0
:101D380008B5024805F004FB08BD00BF7008002084
:101D480008B5024801F02CFC08BD00BFFC020020C9
:101D580008B5024801F024FC08BD00BFCC010020F2
:101D680008B5024801F01CFC08BD00BF6C0100204A
:101D780008B5024801F014FC08BD00BF5C03002050
:101D880008B5024801F00CFC08BD00BF0C0100209A
:101D980008B5024801F004FC08BD00BF0806002091
:101DA80008B5024801F0FCFB08BD00BF680600202A
:101DB800034AD2F8883043F47003C2F88830704779
:101DC80000ED00E000B58DB00023089309930A9355
:101DD8000B9303930493059306930793019302933C
:101DE8001A481B4A0260A7224260836040F2E73229
:101DF800C26003614361836104F04AFDD0B94FF4C6
:101E08008053089308A9114804F047FEA8B9002395
:101E18000393049303A90D4804F01AFF80B9002323
:101E28000193029301A9094804F03CFF58B90DB089
:101E38005DF804FBFFF702FDE1E7FFF7FFFCE6E7CB
:101E4800FFF7FCFCEBE7FFF7F9FCF0E730050020B3
:101E58000000014000B587B0002304930593009368
:101E680001930293039316484FF080420260436047
:101E780083604FF0FF32C2600361836104F034FD78
:101E8800A8B900230493059304A90D4804F00AFF98
:101E980080B90022009201230193029203926946BD
:101EA800074804F08BFD40B907B05DF804FBFFF765
:101EB800C5FCE6E7FFF7C2FCEBE7FFF7BFFCF3E77B
:101EC8007805002000B587B000230493059300939C
:101ED8000193029303931648164A02604360836095
:101EE8004FF6FF72C2600361836104F0FDFCA8B97C
:101EF80000230493059304A90D4804F0D3FE80B988
:101F08000022009201230193029203926946084835
:101F180004F054FD40B907B05DF804FBFFF78EFCF0
:101F2800E6E7FFF78BFCEBE7FFF788FCF3E700BF7A
:101F3800C00500200004004002680E4B9A4200D001
:101F4800704700B583B00022019203F59C33596CA9
:101F580041F0010159645B6C03F001030193019B9B
:101F68000121192001F04AF9192001F07FF903B085
:101F78005DF804FB0000014000B58BB00023059319
:101F880006930793089309930368B3F1804F05D02C
:101F9800244A934225D00BB05DF804FB002101913F
:101FA80003F50E331A6C42F001021A641A6C02F03F
:101FB80001020192019A02911A6B42F001021A631E
:101FC8001B6B03F001030293029B4FF4004305933C
:101FD800022306930123099305A9134801F0D2FBB4
:101FE800D9E700210391114B1A6C42F002021A64DE
:101FF8001A6C02F002020392039A04911A6B42F0DF
:1020080004021A631B6B03F004030493049B40232C
:10201800059302230693099305A9054801F0B2FB2D
:10202800B9E700BF00040040000002400038024049
:102038000008024008B50A480A4B03604FF4E13330
:10204800436000238360C36003610C2242618361A3
:10205800C36104F0A9FF00B908BDFFF7EFFBFBE778
:10206800E80700200010014008B50A480A4B036041
:102078004FF41643436000238360C36003610C225E
:1020880042618361C36104F08FFF00B908BDFFF7A7
:10209800D5FBFBE72C0800200044004008B50A489F
:1020A8000A4B03604FF49643436000238360C36088
:1020B80003610C2242618361C36104F075FF00B9BA
:1020C80008BDFFF7BBFBFBE7700800200048004095
:1020D8002DE9F0418CB00446002307930893099337
:1020E8000A930B930368954A934209D0944A934202
:1020F80068D0944A934200F0C4800CB0BDE8F081E7
:1021080000250095904B5A6C42F010025A645A6CA4
:1021180002F010020092009A01951A6B42F0010237
:102128001A631B6B03F001030193019B4FF4C06317
:1021380007930223089303230A9307230B9307A902
:10214800824801F01FFB8248824B03604FF0006316
:1021580043608560C5604FF48063036145618561B4
:102168004FF48073C3610562456201F021F918BB21
:10217800774BA3639C637848784B03604FF0006308
:102188004360402383600023C3604FF48062026190
:1021980043618361C3610362436201F009F970B965
:1021A8006D4B63639C6300220621252001F026F80D
:1021B800252001F05BF8A0E7FFF740FBD8E7FFF721
:1021C8003DFBEDE7002502955F4B1A6C42F40032A7
:1021D8001A641A6C02F400320292029A03951A6B7E
:1021E80042F008021A631B6B03F008030393039B76
:1021F800602307930223089303230A9307230B936F
:1022080007A9574801F0BEFA5648574B03604FF0EC
:102218000063436040238360C5604FF480630361BB
:1022280045618561C5610562456201F0C1F810BB71
:102238004C4B63639C634D484D4B03604FF0006308
:10224800436000238360C3604FF48062026143618E
:102258008361C3610362436201F0AAF870B9434B1A
:10226800A3639C6300220621262000F0C7FF2620D6
:1022780000F0FCFF41E7FFF7E1FAD9E7FFF7DEFAE4
:10228800EDE700250495304B1A6C42F480221A645D
:102298001A6C02F480220492049A05951A6B42F093
:1022A80002021A631A6B02F002020592059A069559
:1022B8001A6B42F008021A631B6B03F008030693BB
:1022C800069B4FF4006307934FF00208CDF8208077
:1022D80003270A9707260B9607A9264801F052FA02
:1022E8004FF480730793CDF8208009950A970B96D1
:1022F80007A91B4801F046FA1F48204B03604FF01E
:10230800006343608560C5604FF480630361456185
:102318008561C5610562456201F04AF858B9164BF6
:10232800A3639C6300220621272000F067FF272073
:1023380000F09CFFE1E6FFF781FAF0E700100140AA
:1023480000440040004800400038024000000240BD
:10235800080600208864024068060020B86402402D
:10236800000C024028070020A0600240C806002098
:10237800886002400004024088070020286002406C
:10238800DFF834D00D480E490E4A002302E0D45835
:10239800C4500433C4188C42F9D30B4A0B4C0023A5
:1023A80001E013600432A242FBD3FFF701FD0EF0F7
:1023B8006DFDFFF79DFA7047000002200000002025
:1023C80018000020181301081800002004B200208B
:1023D800FEE7000010B504460E4B18784FF47A73E8
:1023E800B3FBF0F30C4A1068B0FBF3F000F04CFFBD
:1023F80068B90F2C01D901200AE0002221464FF0CC
:10240800FF3000F0FBFE054B1C60002000E00120BF
:1024180010BD00BF040000200000002008000020BC
:1024280008B50B4B1A6842F400721A601A6842F435
:1024380080621A601A6842F480721A60032000F001
:10244800CBFE0020FFF7C6FFFFF7BCFB002008BD4E
:10245800003C0240034A1168034B1B780B4413608D
:10246800704700BFB408002004000020014B186822
:10247800704700BFB408002038B50446FFF7F6FFE0
:102488000546B4F1FF3F02D0044B1B781C44FFF70C
:10249800EDFF401BA042FAD338BD00BF0400002066
:1024A8004A4B5A6822F440325A605A6841680A43D3
:1024B8005A600268536823F4807353600268536853
:1024C800016943EA012353600268536823F04073AB
:1024D80053600268536881680B43536002689368CD
:1024E80023F40063936002689368C1680B439360A8
:1024F800826A374B9A4257D00268936823F0706318
:10250800936002689368816A0B43936002689368DA
:1025180023F04053936002689368C16A0B43936049
:102528000268936823F00203936002689368017E4F
:1025380043EA4103936090F82030002B3FD00268B3
:10254800536843F4006353600268536823F460439C
:10255800536001684B68426A013A43EA42334B6070
:102568000268D36A23F47003D3620168CB6AC26934
:10257800013A43EA0253CB620268936823F400737A
:1025880093600268936890F8301043EA412393609F
:102598000268936823F480639360026893684169D2
:1025A80043EA8123936070470268936823F070635D
:1025B80093600268936823F040539360B0E7026821
:1025C800536823F400635360CAE700BF0023014047
:1025D8000100000F38B310B50446036C43B1236CF7
:1025E80013F0100F0BD00120002384F83C3010BDED
:1025F800FEF7A4FD0023636484F83C30EFE7236C06
:1026080023F4885323F0020343F002032364204693
:10261800FFF746FF00206064236C23F0030343F0B8
:1026280001032364E0E701207047000010B582B081
:1026380013460022019290F83C20012A00F0AE8057
:102648000446012280F83C200268906810F0010FCF
:1026580013D1906840F001009060534A1068534AC3
:10266800A2FB0020800C00EB4000019002E00198E2
:102678000138019001980028F9D12268906810F477
:10268800807F03D0906820F4807090602268906802
:1026980010F0010F77D0206C20F4E06020F00100EA
:1026A80040F480702064526812F4806F05D0226C68
:1026B80022F4405242F480522264226C12F4805F69
:1026C80036D0626C22F006026264002284F83C2054
:1026D800A26B3748D063A26B36481064A26B3648A9
:1026E800D06422686FF0220010602068426842F0CF
:1026F800806242602068826842F48072826020684A
:102708000A4600F14C01A06B00F0B8FE2B4B5B6849
:1027180013F01F0F27D12368294A934211D002F5DD
:102728008072934207D0274A934214D0002033E0A6
:1027380000226264C9E702F50072526812F01F0FA6
:10274800F1D19A6812F0405F2AD19A6842F080422B
:102758009A60002020E002F58072526812F0100F93
:10276800EFD0002018E02368154A934201D00020DA
:1027780012E09A6812F0405F14D19A6842F08042E1
:102788009A60002008E0236C43F010032364636C14
:1027980043F001036364002002B010BD0220FBE790
:1027A8000020F9E70020F7E70000002083DE1B4344
:1027B800F5270008D3270008DF2700080023014079
:1027C8000020014000220140704708B5806BFFF7E8
:1027D800FBFF08BD704708B5806B40230364436C5A
:1027E80043F004034364FFF7F5FF08BD08B503464B
:1027F800806B026C12F0500F25D1036C43F4007308
:10280800036403689A6812F0405F19D1027EBAB96E
:10281800DA6A12F4700F03D09A6812F4806F0FD13D
:102828005A6822F020025A60036C23F48073036410
:10283800036C13F4805F03D1036C43F0010303645A
:1028480009F0F2FD08BD026C12F0100F04D1826B82
:10285800D26C18469047F5E7FFF7BCFFF2E7000097
:1028680030B482B00023019390F83C30012B00F083
:10287800BB80012380F83C300B68092B41D90468E0
:10288800E2689BB203EB43031E3B4FF0070C0CFAC4
:1028980003F322EA0303E3600468E2680B8803EBAE
:1028A80043031E3B8D6805FA03F31343E3604B684B
:1028B800062B3DD80468626B03EB8303053B4FF09E
:1028C8001F0C0CFA03F322EA030363630468626BC8
:1028D8004B6803EB8303053BB1F800C00CFA03F324
:1028E800134363630268414B9A4251D002683F4BDD
:1028F8009A4256D0002380F83C30184602B030BCCB
:102908007047046822699BB203EB43034FF0070C3E
:102918000CFA03F322EA03032361046822690B8893
:1029280003EB43038D6805FA03F313432361BEE702
:102938000C2B16D805682A6B03EB8303233B1F2453
:1029480004FA03F322EA03032B6305682A6B4B6836
:1029580003EB8303233B0C8804FA03F313432B6331
:10296800C0E70568EA6A03EB8303413B1F2404FAC6
:1029780003F322EA0303EB620568EA6A4B6803EB98
:102988008303413B0C8804FA03F31343EB62A9E782
:102998000B68122BAAD1164A536843F4800353607C
:1029A800A4E70B68103B012BA4D8114A536843F4E1
:1029B800000353600B68102B9CD10E4B1B6802F16F
:1029C800467202F52E3202F28332A2FB03239B0CDD
:1029D80003EB83035B00019302E0019B013B01933E
:1029E800019B002BF9D185E7022087E700200140F1
:1029F8000023014000000020002800F0A18038B525
:102A0800044690F82030D3B12268136843F00103DC
:102A18001360FFF72BFD054623685A6812F0010F73
:102A280010D1FFF723FD401B0A28F5D9636A43F448
:102A380000336362052384F82030012038BDFEF797
:102A480081FCE1E71A6822F002021A60FFF70EFD26
:102A5800054623685A6812F0020F0DD0FFF706FDED
:102A6800401B0A28F5D9636A43F4003363620523DF
:102A780084F820300120E1E7227E012A3DD01A683F
:102A880022F080021A60637E012B3BD02268136813
:102A980023F040031360A37E012B39D0226813680A
:102AA80023F020031360E37E012B37D022681368DC
:102AB80043F010031360237F012B35D0226813687D
:102AC80023F008031360637F012B33D02268136857
:102AD80023F004031360A368E268134322691343D5
:102AE800626913436268013A21681343CB6100208D
:102AF8006062012384F82030A0E71A6842F080025F
:102B08001A60C0E72268136843F040031360C2E705
:102B18002268136843F020031360C4E7226813682F
:102B280023F010031360C6E72268136843F0080314
:102B38001360C8E72268136843F004031360CAE708
:102B48000120704790F82030013BDBB2012B05D9FA
:102B5800436A43F4802343620120704730B5464BF3
:102B6800D3F8002242F00102C3F80022D3F8002271
:102B780022F47C52C3F80022D3F80022486A42EAC1
:102B88000022C3F800224A6902F01F02012000FA5D
:102B980002F2D3F81C026FEA020C20EA0200C3F822
:102BA8001C02CB69C3B9344BD3F80C020CEA000001
:102BB800C3F80C028C884869CD6844EA054448305B
:102BC80043F830408C68088840EA04404C6904F1B6
:102BD800480E03EBCE035860CB69012B1ED08B69DE
:102BE800002B33D12448D0F804320CEA0303C0F890
:102BF80004320B698BBB2048D0F814320CEA03036B
:102C0800C0F814320B6A012B2ED01B4AD2F80032BE
:102C180023F00103C2F80032002030BD164BD3F870
:102C28000C021043C3F80C028C8848690D6844EA0A
:102C38000544483043F8304088894C698D6840EA3B
:102C48000540483403EBC4035860C8E70A48D0F885
:102C580004321343C0F80432CBE70748D0F81432E3
:102C68001343C0F81432CDE70349D1F81C321A4394
:102C7800C1F81C22C9E700BF0064004070B50446D3
:102C880090F82050EDB2012D06D0436A43F400239A
:102C980043620125284670BD022380F8203002686F
:102CA800136823F001031360FFF7E0FB064623686F
:102CB8005B6813F0010F0CD0FFF7D8FB831B0A2BBE
:102CC800F5D9636A43F400336362052384F820303E
:102CD800E0E700256562DDE730B590F820C00468BC
:102CE800A4680CF1FF3C5FFA8CFCBCF1010F6BD8B7
:102CF80014F0E05F62D0C4F3016CBCF1020F05D997
:102D0800436A43F400034362012062E0012404FAA9
:102D18000CF41C608B68002B3DD10D68CB680468EF
:102D280043EA45550CF118031B01E55003680C698B
:102D38000CF1180E03EB0E135C600B7D012B35D0E4
:102D4800D17993791B0443EA0163517943EA01235A
:102D580014790168234301EB0C11C1F88C31D17847
:102D680093781B0443EA0163517843EA01231178FD
:102D780002680B4302EB0C12C2F8883102680CF1AE
:102D8800180C4FEA0C1C52F80C3043F0010342F8BF
:102D98000C3000201DE04C6843EAC403CC68234390
:102DA8000CF11804240105682B51BFE7036803EBF5
:102DB8000E13596841F480715960C1E7436A43F4BE
:102DC80000134362012004E0436A43F48023436212
:102DD800012030BD90F82030013BDBB2012B01D936
:102DE800002070470368986810F0806000D00120C8
:102DF8009A6812F0006F00D001309B6813F0805F72
:102E0800EFD00130704790F820C00CF1FF3C5FFA1A
:102E18008CFCBCF1010F00F2958030B451B9046804
:102E2800E46814F0030F10D1436A43F400134362BB
:102E3800012077E00468246914F0030F05D1436A80
:102E480043F40013436201206CE001F11B042401E8
:102E580005682C5904F004049460002C64D101F135
:102E68001B04240105682C59640D1460046801F1E1
:102E78001B0C4FEA0C1C54F80C4004F00204D460FC
:102E880004686444646804F00F04146104686444CA
:102E98006468C4F307249461046864446468240C77
:102EA8005461026802EB0112D2F8B8211A70026864
:102EB80002EB0112D2F8B821C2F307225A70026855
:102EC80002EB0112D2F8B821C2F307429A700268E5
:102ED80002EB0112D2F8B821120EDA70026802EB86
:102EE8000112D2F8BC211A71026802EB0112D2F861
:102EF800BC21C2F307225A71026802EB0112D2F810
:102F0800BC21C2F307429A71026802EB0112D2F89F
:102F1800BC21120EDA7179B90268D36843F0200334
:102F2800D360002030BC704701F11B042401056800
:102F38002C59E408546099E70268136943F02003A8
:102F48001361EEE7436A43F480234362012070472C
:102F580090F82030013BDBB2012B05D9436A43F4DA
:102F68008023436201207047026853691943516105
:102F78000020704770477047704770477047704728
:102F88007047704770477047704770472DE9F84F92
:102F9800054603685C69D3F804809F68D3F80CB0D1
:102FA800D3F810A0D3F8189014F001063BD017F00E
:102FB800010616D001229A6017F0020F08D117F007
:102FC800040F0CD117F0080606D04FF4805608E01D
:102FD800FFF7D0FF002604E0FFF7CFFF01E04FF432
:102FE800006617F4807F0DD02B684FF480729A60CA
:102FF80017F4007F40F0868017F4806F00F0868019
:1030080046F4005617F4803F0DD02B684FF48032F9
:103018009A6017F4003F40F0838017F4802F00F087
:10302800838046F4004614F0080F07D01BF0100FF9
:1030380004D046F400762B681022DA6014F0040FEE
:1030480002D01BF0080F79D114F0020F04D02B68BE
:10305800DB6813F0030F78D114F0400F07D01AF093
:10306800100F04D046F480662B6810221A6114F001
:10307800200F02D01AF0080F6BD114F0100F04D0F3
:103088002B681B6913F0030F6AD114F4003F02D0B8
:1030980018F0100F68D114F4803F02D018F0080F10
:1030A80069D114F4004F7AD018F0040F74D014F4D6
:1030B800807F04D019F0010F01D046F0010614F406
:1030C800007F04D019F0020F01D046F0020614F474
:1030D800806F04D019F0040F01D046F0040614F4F0
:1030E800006F59D019F0700956D0B9F1400F65D06A
:1030F80058D8B9F1200F5ED0B9F1300F42D146F05F
:10310800200644E02846FFF736FF7BE717F4006FF8
:1031180002D046F4804675E72846FFF72FFF71E78F
:103128002846FFF729FF7EE717F4002F02D046F460
:10313800803678E72846FFF722FF74E72B680822D5
:10314800DA602846FFF71CFF7EE728460AF032FBC4
:1031580082E72B6808221A612846FFF713FF8CE7DD
:103168002846FFF70EFF90E72B6810225A60284682
:10317800FFF709FF8FE72B6808225A602846FFF7F8
:1031880003FF8EE7B9F1100F01D146F008062A684F
:10319800936923F0700393612B6804225A609EB9E7
:1031A800BDE8F88FB9F1500F0BD0B9F1600FEED12F
:1031B80046F48076EBE746F01006E8E746F040066E
:1031C800E5E746F08006E2E76B6A1E436E62284632
:1031D800FFF7DBFEE4E70000074AD36823F4E06367
:1031E8001B041B0C000200F4E060034343F0BF63C0
:1031F80043F40033D360704700ED00E000B5194B8D
:10320800DB68C3F30223C3F1070CBCF1040F28BF2A
:103218004FF0040C03F1040EBEF1060F18D9033B5E
:103228004FF0FF3E0EFA0CFC21EA0C0199400EFA11
:1032380003F322EA0303194300280BDB0901C9B28F
:1032480000F1604000F5614080F800135DF804FB70
:103258000023E5E700F00F000901C9B2024B195439
:10326800F4E700BF00ED00E014ED00E0002807DB04
:1032780000F01F02400901239340024A42F820301F
:10328800704700BF00E100E00138B0F1807F0BD249
:103298004FF0E0235861054AF02182F823100020FE
:1032A800986107221A6170470120704700ED00E01D
:1032B80030B405682C6824F480242C6004686360AA
:1032C8008368402B05D0036899600368DA6030BCD6
:1032D800704703689A600368D960F8E710B4036818
:1032E800D9B210390C4AA2FB014212090B4CA25C5C
:1032F800C2655F2909D923F47F7323F003030433DC
:103308008365806D5DF8044B704723F47F7323F069
:1033180003038365F5E700BFABAAAAAA84100108D6
:10332800836A826992B9012B0AD0022B02D00BB1B1
:1033380000207047C36A13F0807F28D100207047AF
:10334800C36AB3F1C07F24D000207047B2F5005F94
:1033580009D0022B25D9032B25D1C36A13F0807F0E
:1033680023D100207047032B03D8DFE803F01404AF
:10337800140A00207047C36A13F0807F0DD1002023
:103388007047C36AB3F1C07F09D00020704701209D
:1033980070470120704701207047012070470120C5
:1033A80070470120704700207047012070470000D7
:1033B80070B50446FFF75AF8002C5BD00546022387
:1033C80084F83530002384F834302268136823F0F9
:1033D8000103136023681A6812F0010F0AD0FFF77F
:1033E80045F8431B052BF5D920236365032084F892
:1033F800350070BD1A68204810406168A2680A4309
:10340800E1680A4321690A4361690A43A1690A43D9
:10341800E1690A43216A0A430243616A04291ED00A
:103428001A602668756925F00705636A1D43042B31
:1034380007D1A36A1D43E36A1BB12046FFF770FF5B
:1034480090B975612046FFF749FFE26D3F2393402D
:10345800836000206065012384F83530C9E7E16A9C
:10346800206B01430A43DBE740236365012084F8AE
:103478003500BEE70120BCE73F8010F038B50446B0
:10348800856D90F8340001282BD0012084F8340091
:1034980094F83500C0B2012804D0002384F83430F1
:1034A800022038BD022084F83500002060652046DF
:1034B800FFF7FEFEE26D3F239340AB60226813687E
:1034C80043F016031360236C23B12268136843F09A
:1034D800080313602268136843F001031360002097
:1034E800DFE70220DDE770B50446866DFEF7BEFF14
:1034F80094F83530DBB2022B06D0802363650023B5
:1035080084F83430012070BD05462268136823F022
:10351800160313602268536923F080035361236CF8
:10352800E3B12268136823F0080313602268136864
:1035380023F00103136023681B6813F0010F11D0F7
:10354800FEF794FF431B052BF5D920236365032061
:1035580084F83500002384F83430D4E7A36C002BBA
:10356800DFD1E3E7E26D3F239340B360012384F8A2
:103578003530002084F83400C5E790F83530DBB2E8
:10358800022B03D08023436501207047052380F870
:1035980035300268136823F0010313600020704778
:1035A800F0B583B0044600230193724B1D68724B3B
:1035B800A3FB0535AD0A876D3E68C26D08239340AD
:1035C800334210D003681A6812F0040F0BD01A683F
:1035D80022F004021A60C26D08239340BB60436D59
:1035E80043F001034365E26D01239340334209D060
:1035F8002268526912F0800F04D0BB60636D43F0FB
:1036080002036365E26D04239340334209D02268C4
:10361800126812F0020F04D0BB60636D43F004031C
:103628006365E26D10239340334224D02268126808
:1036380012F0080F1FD0BB6023681A6812F4802F9D
:103648000DD01B6813F4002F04D1236C9BB12046C6
:10365800984710E0A36C73B1204698470BE01A68AE
:1036680012F4807F03D11A6822F008021A60236CD2
:103678000BB120469847E26D20239340334255D042
:103688002268126812F0100F50D0BB6094F83530E1
:10369800DBB2052B0ED023681A6812F4802F33D0C2
:1036A8001B6813F4002F2AD1636C002B3ED02046F0
:1036B80098473BE02268136823F0160313602268DA
:1036C800536923F080035361236CA3B12268136804
:1036D80023F008031360E26D3F239340BB6001238E
:1036E80084F83530002384F83430236D002B3FD024
:1036F800204698473CE0A36C002BE7D1EBE7E36B4F
:10370800A3B12046984711E01A6812F4807F09D1C6
:103718001A6822F010021A60012384F83530002359
:1037280084F83430E36B0BB120469847636DFBB1E6
:10373800636D13F0010F17D0052384F83530226824
:10374800136823F001031360019B01330193AB421B
:1037580004D823681B6813F0010FF5D1012384F8FE
:103768003530002384F83430E36C0BB12046984799
:1037780003B0F0BD00000020B5814E1B90F8350065
:103788007047000000230F2B00F2E48070B582B070
:1037980060E085685E000324B44025EA0405CC682F
:1037A800B4402C438460456825EA02054C68C4F39C
:1037B80000129A402A4342605AE0DC08083450F864
:1037C800246003F0070295000F22AA4026EA020EA1
:1037D8000A69AA4042EA0E0240F824205CE0072267
:1037E80000E0002202FA0EF22A4302345A4D45F84C
:1037F80024205A4A94686FEA0C0224EA0C054E68A1
:1038080016F4801F01D04CEA0405544CA560E46806
:1038180002EA04054E6816F4001F01D04CEA0405BC
:103828004E4CE560646802EA04054E6816F4003FF1
:1038380001D04CEA0405494C6560246822404D6873
:1038480015F4803F01D04CEA0402444C2260013355
:103858000F2B7DD801229A400C6804EA020C32EA48
:103868000404F4D14C6804F00304013C012C90D901
:103878004A6802F00302032A09D0C4685D000322E3
:10388800AA4024EA02048A68AA402243C2604A681D
:1038980002F00302022A90D004684FEA430E032282
:1038A80002FA0EF224EA02044A6802F0030202FA5B
:1038B8000EF2224302604A6812F4403FC7D0002249
:1038C8000192274A546C44F480445464526C02F4C4
:1038D80080420192019A9C08A51C1F4A52F8255063
:1038E80003F003024FEA820E0F2202FA0EF225EAD3
:1038F80002051C4A90423FF474AF02F58062904280
:103908001AD002F58062904218D002F58062904287
:1039180016D002F58062904214D002F5806290427F
:1039280012D002F58062904210D002F58062904277
:103938003FF455AF082255E7012253E7022251E729
:1039480003224FE704224DE705224BE7062249E709
:1039580002B070BD704700BF00380140003C014014
:1039680000380240000002400AB181617047090432
:103978008161704790F83E30DBB2402B10D003696C
:10398800B3F5804F1BD0036D002B39D1436CC3F3C3
:10399800C813026803F0060343F0F003136170478D
:1039A800036D2BB9436C026803F0FE031361704783
:1039B800436C026843F00103DBB21361704790F86F
:1039C8003D30DBB2212B0FD0436C026843F001037A
:1039D800DBB21361436B6BB1DB6B5BB1026853689D
:1039E80043F4006353607047436C026803F0FE03BE
:1039F8001361EFE7836B33B1DB6B002BEED102E091
:103A0800036D012B00D07047436CC3F3C8130268E1
:103A180003F0060343F0F1031361F4E7436C026813
:103A2800DBB21361436B3BB1DB6B2BB102685368AC
:103A380043F4006353607047836B002BFBD0DB6B50
:103A4800002BF3D1F7E710B48BB090F83E30DAB220
:103A5800C16A046B90F83D30DBB2222B0BD00023F7
:103A6800099303685A6909929B690993099B0BB0EA
:103A78005DF8044B7047036D0BB9402A17D0036DEE
:103A88001BB90369B3F5404F19D0438D9BB2002B86
:103A980025D1029303685A6902929A690292029A9E
:103AA8001A6842F400721A6000230365DFE7009386
:103AB80003685A6900929B690093009BD7E700232B
:103AC800019303685A6901929A690192019A1A68E6
:103AD80042F480721A60036D01330365C7E7438DB2
:103AE8009BB2012B25D0438D9BB2022B7BD0026861
:103AF800136843F48063136003685A6812F4006F14
:103B08000ED011F5803F07D0012905D0082903D030
:103B1800102901D0202903D15A6842F480525A60F2
:103B28000023089303685A6908929B690893089BC5
:103B3800BAE711F5803F11D0082934D0202932D0B6
:103B4800122C2ED0042940D002293ED010293CD076
:103B58000268136823F4806313603BE0026813680B
:103B680023F48063136003685A6812F4006F0CD062
:103B78001A6822F480621A600023039303685A6962
:103B880003929B690393039B8EE7002204925A6970
:103B980004929A690492049A1A6842F400721A60AC
:103BA80082E70129CED00268136823F4806313608A
:103BB8000023069303685A6906929A690692069A40
:103BC8001A6842F400721A606EE70268136843F4D8
:103BD800806313600023059303685A6905929B6903
:103BE8000593059B60E704290ED002290CD0102903
:103BF8000AD00268136823F48063136002681368AC
:103C080043F40063136004E00268136843F48063BC
:103C1800136003685A6812F4006F0ED011F5803FE4
:103C280007D0012905D0082903D0102901D020295F
:103C380003D15A6842F480525A60002307930368FC
:103C48005A6907929B690793079B2DE7438D9BB29F
:103C58005BB1426A036812781A61436A01334362AE
:103C6800438D9BB2013B9BB243857047438D9BB20A
:103C78005BB103681A69436A1A70436A0133436285
:103C8800438D9BB2013B9BB24385704782B00023B2
:103C980001930E4B1B68DB080D4AA2FB03231B0A8A
:103CA80003EB83030193019B013B0193019B33B118
:103CB80003681B6813F4007FF5D1002004E0036C4F
:103CC80043F020030364012002B070470000002085
:103CD80089B5F81403685A6912F4806F01D100207D
:103CE80070476FF480625A6100230363202280F8D2
:103CF8003D2080F83E30026C42F00402026480F8F5
:103D08003C3001207047C36AB3F52A0F04D0C36A58
:103D1800B3F12A4F03D070470123C36270470823C9
:103D2800C362F8E72DE9F04107460D4690461E4666
:103D380024E0FEF79BFB069BC01AB04200D8EEB900
:103D480000233B63202287F83D2087F83E303A6CF9
:103D580042F020023A6487F83C3001201EE03B68BC
:103D68009C6925EA040C1FFA8CFCBCFA8CFC4FEA0F
:103D78005C1CE04511D1B6F1FF3FDAD1C5F307432A
:103D8800012BECD13B685B6925EA030C1FFA8CFC1C
:103D9800BCFA8CFC4FEA5C1CEBE70020BDE8F08124
:103DA8002DE9F04105460E46174698463DE01A684B
:103DB80042F400721A602B686FF480625A61002323
:103DC8002B63202285F83D2085F83E302A6C42F08E
:103DD80004022A6485F83C30012034E0FEF746FBF3
:103DE800A0EB0800B84200D8FFB900232B632022BB
:103DF80085F83D2085F83E302A6C42F020022A647E
:103E080085F83C3001201EE02B689C6926EA0404F2
:103E1800A4B2003C18BF0124A4B12B685A6912F45B
:103E2800806FC4D1B7F1FF3FD8D1C6F30743012B48
:103E3800EAD12B685C6926EA0404A4B2003C18BFE6
:103E48000124E9E70020BDE8F08170B504460D467D
:103E5800164623685B6913F0800F1CD12046FFF7D4
:103E680039FFD0B9B5F1FF3FF3D0FEF7FFFA801B59
:103E7800A84201D8002DECD100232363202284F826
:103E88003D2084F83E30226C42F02002226484F8FF
:103E98003C30012000E0002070BD0120FCE700005C
:103EA8002DE9F04385B004460D4691461F46DDF8DE
:103EB80030800D9E0368196841F48071196000967E
:103EC800434600224FF00111FFF72CFF60B9236829
:103ED80005F0FE051D613346424626492046FFF798
:103EE8005FFF68B1012008E023681B6813F4807F36
:103EF80002D04FF400732364032005B0BDE8F083BB
:103F08000023039323685A6903929B690393039BD5
:103F1800324641462046FFF798FF30B9012F0FD1AE
:103F280023685FFA89F61E61E7E7236C042B01D04A
:103F38000120E2E72268136843F400731360F7E78F
:103F480023684FEA19221A61324641462046FFF794
:103F58007CFF20B923685FFA89F61E61CDE7236CE0
:103F6800042B01D00120C8E72268136843F40073CA
:103F78001360F7E7020001002DE9F04784B004461A
:103F88000D46164699460C9FDDF834800268136882
:103F980043F4806313600368196841F48071196001
:103FA800CDF800803B4600224FF00111FFF7BAFE22
:103FB80070B95FFA85FA236805F0FE051D6143466E
:103FC8003A4641492046FFF7EBFE68B1012008E078
:103FD80023681B6813F4807F02D04FF400732364B6
:103FE800032004B0BDE8F0870023039323685A69CF
:103FF80003929B690393039B424639462046FFF789
:1040080024FF80B9B9F1010F18D12368F6B21E61F7
:10401800424639462046FFF718FF68B3236C042B45
:1040280024D00120DDE7236C042B01D00120D8E740
:104038002268136843F400731360F7E72368320AB1
:104048001A61424639462046FFF7FFFE18B9236831
:10405800F6B21E61DCE7236C042B01D00120C0E717
:104068002268136843F400731360F7E72268136843
:1040780043F400731360D4E72268136843F4807331
:104088001360CDF800803B4600224FF00111204616
:10409800FFF748FE68B922684AF0010313614346F6
:1040A8003A4609492046FFF77BFE002899D00120AF
:1040B80097E723681B6813F4807F02D04FF40073DE
:1040C800236403208DE700BF0200010070B5044699
:1040D8000D46164623685B6913F0040F1CD1204671
:1040E800FFF7F8FDD0B9B5F1FF3FF3D0FEF7BEF901
:1040F800801BA84201D8002DECD100232363202285
:1041080084F83D2084F83E30226C42F0200222647C
:1041180084F83C30012000E0002070BD0120FCE75D
:1041280070B505460C4616462B68596911F0400FC4
:1041380029D1596911F0100F15D1FEF797F9801B95
:10414800A04201D8002CEFD100232B63202285F850
:104158003D2085F83E302A6C42F020022A6485F81A
:104168003C30012070BD6FF010025A6100232B63B0
:10417800202285F83D2085F83E302A6C2A6485F88F
:104188003C300120EEE70020ECE70000002800F0BA
:10419800CC8070B5044690F83D30002B77D02423AE
:1041A80084F83D302268136823F001031360226805
:1041B800136843F4004313602268136823F4004330
:1041C800136001F0F3FC62685A4B9A4264D85A4B68
:1041D80098428CBF00230123002B40F0A880574948
:1041E800A1FB00318B0C25686A6822F03F0242EA85
:1041F80091426A6021680A6A22F03F0266684D4D62
:10420800AE424FD8013313430B622168CA6922F4C6
:104218004F4222F0FF026668464B9E424CD8431E2E
:104228007600B3FBF6F3013340F6FC70034278D016
:10423800C3F30B031343CB6121680B6823F0C0035E
:10424800E269206A024313430B6021688B6823F4F8
:10425800034323F0FF032269E068024313438B60A2
:104268002168CB6823F0FF036269A0690243134306
:10427800CB602268136843F00103136000202064B8
:10428800202384F83D30206384F83E0070BD80F818
:104298003C30FDF75BFA82E7294B98428CBF00233C
:1042A800012399E74FF4967505FB03F3254DA5FB0C
:1042B80003539B090133A6E7A368BBB9451E06EB68
:1042C800460CB5FBFCF50135C5F30B05B5FA85F5CC
:1042D8006D0945BBC3B9013806EB4603B0FBF3F3E0
:1042E8000133C3F30B0343F40043A3E7451E06EB76
:1042F800860C0CEB8C0CB5FBFCF50135C5F30B05F6
:10430800B5FA85F56D09E4E7013806EB860303EB9A
:104318008303B0FBF3F30133C3F30B0343F44043CC
:1043280088E7042386E7012384E7012070470120FA
:10433800ACE700BFA08601007F841E0083DE1B431C
:10434800FF083D00D34D62102DE9F04383B00446C9
:104358000F46904699460C9EFEF788F8054694F855
:104368003D00C0B2202803D0022003B0BDE8F0838E
:104378000095192301224B492046FFF7D3FC00285A
:1043880040F0898094F83C30012B00F086800123AE
:1043980084F83C3023681A6812F0010F03D11A68B8
:1043A80042F001021A602268136823F40063136064
:1043B800212384F83D30402384F83E3000232364D1
:1043C8000A9B6362BDF82C306385638D2385364B69
:1043D800E362019500964B46424639462046FFF770
:1043E8005FFD00285BD1238D002B35D02A4631464E
:1043F8002046FFF72AFD20BB626A236812781A61FB
:10440800626A531C6362218D013989B22185638DEB
:104418009BB2013B9BB263852368586910F0040F77
:10442800E1D00029DFD052781A61636A01336362F0
:10443800238D013B2385638D9BB2013B9BB2638532
:10444800D1E7236C042B01D001208EE72268136882
:1044580043F400731360F7E72A4631462046FFF716
:1044680035FE50B1236C042B01D001207DE7226872
:10447800136843F400731360F7E72268136843F482
:1044880000731360202384F83D30002384F83E3005
:1044980084F83C3069E7022067E7022065E70120DD
:1044A80063E700BF020010000000FFFF2DE9F043A2
:1044B80087B004460F4690469946109EFDF7D6FFF2
:1044C800054694F83D00C0B2202804D0022738469B
:1044D80007B0BDE8F08300951923012288492046DA
:1044E800FFF720FC002840F0438194F83C30012B72
:1044F80000F04081012384F83C3023681A6812F0E8
:10450800010F03D11A6842F001021A602268136889
:1045180023F400631360222384F83D30402384F899
:104528003E30002323640E9B6362BDF83C306385F4
:10453800638D2385734BE362019500964B46424693
:1045480039462046FFF718FD0746002840F0148139
:10455800238D5BB9029323685A6902929A69029281
:10456800029A1A6842F400721A6075E0012B0AD0A8
:10457800022B1AD00023059323685A6905929B6978
:104588000593059B68E02268136823F48063136031
:104598000023039323685A6903929A690392039A42
:1045A8001A6842F400721A6056E02268136823F40D
:1045B800806313602268136843F400631360002368
:1045C800049323685A6904929B690493049B43E00B
:1045D8002A4631462046FFF7A3FD002840F0CE804A
:1045E80023681A69636A1A70636A01336362238DE8
:1045F800013B2385638D9BB2013B9BB263852BE016
:1046080000953346002240492046FFF78BFB0028DF
:1046180040F0B6802268136843F40073136023687F
:104628001A69636A1A70626A531C6362238D013BBC
:104638002385638D9BB2013B9BB2638523681B690D
:104648005370636A01336362238D013B2385638D55
:104658009BB2013B9BB26385238D002B7FD0032B3C
:1046680054D8012BB4D0022BCAD00095334600226F
:1046780025492046FFF756FB002840F08380226832
:10468800136823F48063136023681A69636A1A70D5
:10469800636A01336362238D013B2385638D9BB27B
:1046A800013B9BB26385009533460022164920469C
:1046B800FFF738FB002867D12268136843F40073BA
:1046C800136023681A69636A1A70626A531C63620A
:1046D800238D013B2385638D9BB2013B9BB2638590
:1046E80023681B695370636A01336362238D013B3E
:1046F8002385638D9BB2013B9BB26385ACE700BF0A
:10470800020010000000FFFF040001002A463146A5
:104718002046FFF705FD002838D123681A69636A27
:104728001A70626A531C6362238D013B2385638D73
:104738009BB2013B9BB263852368596911F0040F52
:104748008AD01B695370636A01336362238D013B0E
:104758002385638D9BB2013B9BB263857CE7202355
:1047680084F83D30002384F83E3084F83C30AEE6CF
:104778000227ACE60227AAE60127A8E60127A6E653
:104788000127A4E60127A2E60127A0E601279EE665
:1047980030B482B00024019490F83D40E4B2202C5B
:1047A8005CD1314C2468E408304DA5FB0454240A3C
:1047B80004EB840404EB84040194019C013C0194FF
:1047C800019C002C3BD00468A56915F0020FF4D1B8
:1047D80090F83C50012D45D0012580F83C502568C3
:1047E80015F0010F03D1256845F00105256005681E
:1047F8002C6824F400642C60212480F83D40402477
:1048080080F83E4000240464049D4562BDF81450BD
:104818004585458D0585164DC56241648264C3642E
:1048280004650268136843F48073136080F83C40A1
:104838000268536843F4E063536020460FE00023A6
:104848000363202280F83D2080F83E30026C42F05D
:104858002002026480F83C30012000E0022002B00F
:1048680030BC70470220FAE70000002089B5F81430
:104878000000FFFF30B482B00024019490F83D405E
:10488800E4B2202C63D1354C2468E408344DA5FBF0
:104898000454240A04EB840404EB84040194019C6A
:1048A800013C0194019C002C42D00468A56915F0D4
:1048B800020FF4D190F83C50012D4CD0012580F81E
:1048C8003C50256815F0010F03D1256845F0010516
:1048D800256005682C6824F400642C60222480F884
:1048E8003D40402480F83E4000240464049D456215
:1048F800BDF814504585458D05851A4DC56241643E
:104908008264C36404650268136843F480631360B7
:104918000268136843F48073136080F83C40038D89
:1049280023B10268536843F4E063536000200FE04A
:1049380000230363202280F83D2080F83E30026C7B
:1049480042F02002026480F83C30012000E002209E
:1049580002B030BC70470220FAE700BF0000002018
:1049680089B5F8140000FFFF70477047704708B515
:1049780090F83D30DAB2438D9BB283B1416A036847
:1049880009781961436A01334362438D9BB2013B45
:104998009BB24385438D9BB20BB9292A00D008BD31
:1049A8000268536823F48063536021230363282338
:1049B80080F83D30FFF7DAFFF1E7704708B590F867
:1049C8003D30DAB2438D9BB283B103681969436AFB
:1049D8001970436A01334362438D9BB2013B9BB21A
:1049E8004385438D9BB20BB92A2A00D008BD0268C3
:1049F800536823F48063536022230363282380F8D9
:104A08003D30FFF7DAFFF1E7704700B583B090F863
:104A18003D3003F02803282B0CD0002301930268B3
:104A28005169019192690192019A80F83C3003B072
:104A38005DF804FB0268536823F48063536011F047
:104A4800040F0BD0002311F0800F09D182890021B7
:104A580080F83C101946FFF7D7FFE8E70123F2E793
:104A6800028BF4E77047000008B590F83D30DBB2E0
:104A7800C26A082A01D0202A01D1282B06D0212B6E
:104A88001ED003686FF480625A6108BD1A4BC36276
:104A98000268536823F4E063536003686FF480622C
:104AA8005A610268136823F4806313600023036368
:104AB800202280F83D2080F83E30FFF7D3FFE4E75E
:104AC8000D4BC36221230363202380F83D3000236C
:104AD80080F83E300268536823F4E063536003684B
:104AE8006FF480625A610268136823F4806313606C
:104AF800FFF73CFFC9E700BF0000FFFF704708B59C
:104B0800C26A90F83D30DBB2212B00D008BD438D3E
:104B18009BB263B1426A036812781A61436A01332F
:104B28004362438D9BB2013B9BB24385EEE7082A63
:104B380004D0202A02D012F5803F19D102685368A8
:104B480023F4E06353600268136843F4007313604E
:104B580000230363202380F83D3090F83E30DBB219
:104B6800402B15D0002380F83E30FFF7FDFECDE73F
:104B78000268536823F4E06353601123036300233E
:104B880080F83E30202380F83D30FFF7EDFEBDE78A
:104B9800002380F83E30FFF7B1FFB7E708B590F87B
:104BA8003D30026D9AB9C36C012B08D0836CC3F3F6
:104BB800072302681361036D0133036508BD836C25
:104BC8000268DBB21361036D02330365F6E7DBB2FB
:104BD800026D012A23D0026D022AEFD1222B26D0A2
:104BE800428D92B20AB1212B2AD0428D92B2002A6C
:104BF800E4D1212BE2D10268536823F4E0635360C7
:104C08000268136843F400731360002303632022CF
:104C180080F83D2080F83E30FFF770FFCEE7836CC8
:104C28000268DBB21361036D01330365C6E70268EE
:104C3800136843F480731360036D01330365BDE7A4
:104C4800426A036812781A61436A01334362438DEA
:104C58009BB2013B9BB24385B0E710B590F83D305D
:104C6800DBB290F83E20D2B2C46A018D09B9212B7B
:104C780004D0212B3BD0402A37D010BD082C04D0BB
:104C8800202C02D014F5803F19D10268536823F410
:104C9800E06353600268136843F4007313600023F1
:104CA8000363202380F83D3090F83E30DBB2402B80
:104CB80015D0002380F83E30FFF756FEDDE7026886
:104CC800536823F4E063536011230363002380F8DF
:104CD8003E30202380F83D30FFF746FECDE7002325
:104CE80080F83E30FFF70AFFC7E7222BC5D1438D76
:104CF8009BB22BB90268536823F480635360BCE706
:104D080090F83E30DBB2402B0CD0426A0368127830
:104D18001A61436A01334362438D9BB2013B9BB2E4
:104D28004385AAE7FFF73AFFA7E7704708B5C26AC5
:104D3800438D9BB2042B14D0438D9BB2032B22D0FE
:104D4800438D9BB2022B39D003681A69436A1A70E3
:104D5800436A01334362438D9BB2013B9BB2438557
:104D680010E00268536823F48063536003681A698B
:104D7800436A1A70436A01334362438D9BB2013B15
:104D88009BB2438508BD01684B6823F480634B6080
:104D9800042A06D0022A04D00268136823F4806328
:104DA800136003681A69436A1A70436A01334362DD
:104DB800438D9BB2013B9BB24385E3E7012A0BD0AD
:104DC800102A09D0042A38D0022A36D0026813687B
:104DD80043F40073136004E00268136823F48063EB
:104DE800136003681A69436A1A70426A531C436263
:104DF800438D9BB2013B9BB2438503681B6953708B
:104E0800436A01334362438D9BB2013B9BB24385A6
:104E18000268536823F440735360202380F83D30C0
:104E280090F83E30DBB2402B0DD0002380F83E30A6
:104E380012230363FFF799FDA4E70268136843F49C
:104E480080631360CDE7002380F83E300363FFF7EB
:104E58006CFF97E7704790F83D30DBB2222B00D00B
:104E6800704710B50446438D9BB2032B15D90368D0
:104E78001A69436A1A70436A01334362438D9BB2CD
:104E8800013B9BB24385438D9BB2032B0FD1026834
:104E9800536823F48063536009E0C26A022A01D090
:104EA800012B05D92268536823F48063536010BD31
:104EB800FEF7ECFE00282ED12268136823F48063E5
:104EC80013602268536823F4E063536023681A6907
:104ED800636A1A70636A01336362638D9BB2013B34
:104EE8009BB26385202384F83D3094F83E30DBB2D2
:104EF800402B08D0002384F83E3012232363204639
:104F0800FFF733FDD3E7002384F83E3023632046C0
:104F1800FFF70BFFCBE72268536823F4E063536085
:104F280023681A69636A1A70636A01336362638D5E
:104F38009BB2013B9BB26385202384F83D3000235C
:104F480084F83E302046FFF785FFB0E77047000041
:104F580000B583B000230193806B90F83D20D2B256
:104F6800324B1B68DB083249A1FB03131B0A03EB16
:104F78008303C3EBC3030193019B43B1019B013B33
:104F8800019303681B6813F4007FF5D103E0036CF9
:104F980043F020030364436B0BB10021D963836B97
:104FA8000BB10021D96301680B6823F480630B609F
:104FB80000234385436B0BB100211965836B0BB14B
:104FC8000021196501680B6823F001030B6090F854
:104FD8003D30DBB2602B0ED002F02802282A14D014
:104FE800202380F83D30002380F83E30FFF732FF61
:104FF80003B05DF804FB202380F83D30002380F8DF
:105008003E300364FFF7A2FFF2E70268136843F03B
:10501800010313600268136843F48063136000237C
:105028000363282380F83D30E0E700BF000000203C
:1050380089B5F81410B5044690F83D30DBB290F805
:105048003E20D2B2102A36D0402A34D003F02802AB
:10505800282A38D02268526812F4006F07D1602BD2
:1050680005D0202384F83D30002384F83E30002307
:10507800236323685A6812F4006F48D05A6822F4F0
:1050880000625A60626B92F83530DBB2012B20D097
:10509800444B1365606BFEF770FA002849D022680C
:1050A800136823F001031360202384F83D30606BFC
:1050B800036D98473DE0222BC8D121680A6822F485
:1050C80000620A60C2E700232363282384F83D3086
:1050D800CFE7A36B334A1A65A06BFEF74EFA40B3CD
:1050E80023685A6912F0400F05D01A69636A1A706A
:1050F800636A013363622268136823F00103136053
:10510800202384F83D30A06B036D984711E094F894
:105118003D20D2B2602A1FD05A6912F0400F05D044
:105128001A69636A1A70636A013363622046FFF77B
:1051380091FE236C13F00F0F04D02268536823F4F8
:10514800E063536094F83D30DBB2226C12F0040F38
:1051580001D0282B18D010BD202284F83D20002231
:1051680022645A6912F0400F05D01A69636A1A70EE
:10517800636A013363622268136823F001031360D2
:105188002046FFF7E3FED4E7074BE36200232363DF
:10519800202284F83D2084F83E302046FFF762FC48
:1051A800D9E700BF594F00080000FFFF30B583B0B2
:1051B800044690F83D50EDB20268536823F4E0636A
:1051C80053600023019303685A6901921A6842F0F8
:1051D80001021A60019B0268136823F4806313605C
:1051E80003685A6812F4006F38D0222D21D02A2D76
:1051F8001FD0426B1268526892B24285428D92B2B9
:105208001AB1026C42F0040202645A6822F4006285
:105218005A60606BFEF7B2FA01281FD0636B444AEC
:105228001A65606BFEF7A9F9C0B1606B036D98470A
:1052380014E0A26B1268526892B26285628D92B2D3
:105248001AB1226C42F0040222645A6822F4006205
:105258005A60A06BFEF792FA012842D1638D9BB287
:1052680033B323685A6912F0040F0AD01A69636AC3
:105278001A70636A01336362638D9BB2013B9BB210
:10528800638523685A6912F0400F0AD01A69636A65
:105298001A70636A01336362638D9BB2013B9BB2F0
:1052A8006385638D9BB21BB1236C43F004032364B5
:1052B800236C13BB2A2D25D094F83D30DBB2282B64
:1052C80029D0236B222B01D0222D19D1002323634F
:1052D800202284F83D2084F83E302046FFF76DFBFD
:1052E8000EE0A36B124A1A65A06BFEF746F9002878
:1052F800B4D0A06B036D9847B0E72046FFF79AFE3D
:1053080003B030BD00232363282384F83D302046B2
:10531800FFF753FBD0E7074BE36200232363202208
:1053280084F83D2084F83E302046FFF79BFBE7E7F2
:10533800594F00080000FFFFF8B504460268556899
:10534800C66A90F83E30DBB290F83D10C8B2102B18
:1053580013D0402B11D0236C002B7AD05369002135
:1053680013F0020F78D015F4007F75D0236C03B1C9
:1053780091692046FFF749FBF8BDD2F818C051697A
:1053880011F0010705D1B6F52A0FF5D0B6F12A4F6D
:10539800F2D017B115F4007F29D111F0080F02D00F
:1053A80015F4007F2AD111F0020F02D015F4007F06
:1053B80028D11CF0040F31D0526812F4006FDBD1F1
:1053C80011F0800F05D015F4806F02D011F0040F92
:1053D8001CD011F0040FCFD015F4007FCCD02128B9
:1053E80018D0402BC8D12046FFF7D8FBC4E7204689
:1053F800FEF789FC2046FEF7BDFABDE72046FEF71A
:105408000DFBB9E72046FEF71EFBB5E72046FFF780
:1054180024FCB1E72046FFF772FBADE7536813F4AD
:10542800006FA9D111F0400F05D015F4806F02D09C
:1054380011F0040F09D011F0040F9DD015F4007F6E
:105448009AD02046FFF772FC96E72046FFF703FD47
:1054580092E79169536983E713F0100F02D015F4AE
:10546800007F18D121281AD0292818D013F0400F0E
:1054780005D015F4806F02D013F0040F28D013F074
:10548800040F3FF479AF15F4007F3FF475AF204661
:10549800FEF7ECFB70E72046FFF788FE6CE713F099
:1054A800800F05D015F4806F02D013F0040F0BD0D5
:1054B80013F0040F3FF460AF15F4007F3FF45CAFC6
:1054C8002046FEF7C3FB57E72046FFF750FA53E79D
:1054D8002046FFF773FA4FE7F8B5044603685D699D
:1054E8005F6890F83E20D2B215F4807F07D017F499
:1054F800807F3CD06FF480715961012600E000265E
:1055080015F4007F08D017F4807F05D046F0020616
:1055180023686FF40071596115F4806F19D017F47E
:10552800807F16D0638D99B294F83D30DBB2206B42
:10553800202A1ED023686FF48061596146F0040662
:10554800102A01D0402A04D12268136843F400735A
:10555800136015F4006F08D017F4807F05D046F06B
:10556800080623686FF400625A6186B9F8BD002600
:10557800C6E70029DED1212B05D0292B03D0282B03
:10558800D8D12128D6D12046FFF76EFAE1E7236C5F
:105598001E4326642046FFF74DFDE7E790F83D00DF
:1055A80070470000002800F0E08170B582B0044622
:1055B800036813F0010F3BD09F4B9B6803F00C036B
:1055C800042B2CD09C4B9B6803F00C03082B21D098
:1055D8006368B3F5803F4FD0B3F5A02F52D0964BF8
:1055E8001A6822F480321A601A6822F480221A603B
:1055F8006368002B50D0FCF739FF05468E4B1B68BB
:1056080013F4003F14D1FCF731FF401B6428F5D98F
:105618000320B1E1884B5B6813F4800FD8D0864B28
:105628001B6813F4003F03D06368002B00F09F81D0
:10563800236813F0020F54D07F4B9B6813F00C0FB4
:105648003ED07D4B9B6803F00C03082B33D0E368F6
:10565800002B68D0794B01221A60FCF707FF05463A
:10566800754B1B6813F0020F54D1FCF7FFFE401B6B
:105678000228F5D903207FE16F4A136843F4803389
:105688001360B5E76C4B1A6842F480221A601A68F6
:1056980042F480321A60ABE7FCF7E8FE0546664B39
:1056A8001B6813F4003FC3D0FCF7E0FE401B6428DE
:1056B800F5D9032060E1604B5B6813F4800FC6D115
:1056C8005D4B1B6813F0020F03D0E368012B40F019
:1056D8005081594A136823F0F803216943EAC1034A
:1056E8001360236813F0080F42D063696BB3534B00
:1056F8000122C3F8802EFCF7B9FE05464E4B5B6FBE
:1057080013F0020F34D1FCF7B1FE401B0228F5D983
:10571800032031E1484A136823F0F803216943EA7A
:10572800C1031360DDE7454B00221A60FCF79EFEBB
:105738000546414B1B6813F0020FD2D0FCF796FECA
:10574800401B0228F5D9032016E13C4B0022C3F880
:10575800802EFCF78BFE0546374B5B6F13F0020F6C
:1057680006D0FCF783FE401B0228F5D9032003E18D
:10577800236813F0040F77D02F4B1B6C13F0805F56
:1057880033D1002301932C4B1A6C42F080521A64D7
:105798001B6C03F080530193019B0125284B1B6868
:1057A80013F4807F23D0A368012B34D0052B38D085
:1057B800214B1A6F22F001021A671A6F22F00402B5
:1057C8001A67A368002B3DD0FCF750FE06461A4B1B
:1057D8001B6F13F0020F46D1FCF748FE801B41F205
:1057E80088339842F3D90320C6E00025D6E7144A47
:1057F800136843F480731360FCF738FE0646104BB9
:105808001B6813F4807FCED1FCF730FE801B022882
:10581800F5D90320B0E0084A136F43F0010313677A
:10582800CFE7054B1A6F42F004021A671A6F42F06D
:1058380001021A67C5E700BF00380240000047426E
:1058480000700040FCF712FE0646524B1B6F13F027
:10585800020F08D0FCF70AFE801B41F288339842F9
:10586800F3D9032088E0EDB9A369002B00F0838009
:10587800484A926802F00C02082A51D0022B17D02D
:10588800454B00221A66FCF7F1FD0446414B1B68A4
:1058980013F0007F42D0FCF7E9FD001B0228F5D980
:1058A800032069E03B4A136C23F080531364DBE761
:1058B800394B00221A66FCF7D9FD0546354B1B68A3
:1058C80013F0007F06D0FCF7D1FD401B0228F5D964
:1058D800032051E0E369226A1343626A43EA8213B0
:1058E800A26A5208013A43EA0243E26A43EA0263BF
:1058F800284A5360284B01221A66FCF7B7FD044674
:10590800244B1B6813F0007F06D1FCF7AFFD001B8A
:105918000228F5D903202FE000202DE000202BE0FD
:10592800012B2BD01B4B5B6803F48001E269914289
:1059380026D103F03F02216A8A4223D1616A47F6E1
:10594800C0721A40B2EB811F1ED103F44031A26A23
:105958005208013AB1EB024F18D103F07063E26AC2
:10596800B3EB026F14D1002006E00120704701203C
:1059780002E0012000E0002002B070BD0120FBE73A
:105988000120F9E70120F7E70120F5E70120F3E717
:105998000120F1E7003802400000474208B5254BD6
:1059A8009B6803F00C03042B3FD0082B3FD1214BFD
:1059B8005A6802F03F025B6813F4800F12D01D4B47
:1059C8005968C1F388111C480023A1FB0001FBF7AB
:1059D8003DF9184B5B68C3F3014301335B00B0FB2F
:1059E800F3F025E0134B5968C1F3881C4FEA4C11BA
:1059F800B1EB0C006EEB0E0E4FEA8E1343EA906388
:105A08008101091A63EB0E03DB0043EA5173C900F5
:105A180011EB0C0C43F10003990200234FEA8C2090
:105A280041EA9C51FBF712F9D3E7034800E0034829
:105A380008BD00BF0038024040787D010024F40012
:105A4800002800F09B8070B50D4604464F4B1B683C
:105A580003F007038B4208D2CBB24C4A1370136889
:105A680003F007038B4240F08B80236813F0020F8A
:105A780017D013F0040F04D0454A936843F4E05359
:105A88009360236813F0080F04D0414A936843F4E5
:105A9800604393603E4A936823F0F003A1680B4388
:105AA8009360236813F0010F32D06368012B21D073
:105AB8009A1E012A25D9364A126812F0020F61D0BF
:105AC80033498A6822F0030213438B60FCF7CEFC4B
